:100000000C94500C0C94780C0C94780C0C94780C88
:100010000C94780C0C94780C0C94780C0C94780C50
:100020000C94780C0C94780C0C94A7260C9439251D
:100030000C94780C0C94780C0C94780C0C94780C30
:100040000C94780C0C94780C0C94780C0C94780C20
:100050000C94780C0C94780C0C94780C0C94FE1C7A
:100060000C94780C0C940F200C9441200C94780C78
:100070000C94780C0C94780C0C94780C0C94780CF0
:100080000C94780C0C94780C0C94780C0C94780CE0
:100090000C94780C0C94780C0C94780C0C94780CD0
:1000A0000C94780C0C94780C0C94780C0D1E101E8B
:1000B000FF1D031E091E311E311E311E141E181E87
:1000C0001C1E221E261E311E2C1E72756E2D627283
:1000D000696467650A000A000A00FFE0FFD1AFFF0C
:1000E00032FFD0FFFEFFE0FFD1AEFFD0FFFEFFE00A
:1000F000FFD11002FFFEFFD0FFE0FFC1FFD1AED560
:1001000080A83FD300408D142002A1C8DA1281CF0D
:10011000D9F1DB402EA4A6AFFFD0FFFE00070E00F2
:10012000FD0901D903AF20FFFD0CFD0BFD00000010
:10013000070000010909070300808080808080801B
:1001400000800404040701079090909006060607BB
:10015000000348FC4848FC48050D0D0700FE202020
:1001600070A8A0A0702828A87020200709090700FF
:10017000007EA2A4A8542A4A8A840609090700001E
:10018000708890A040A0948874010404070307803D
:10019000808080040D0D0701FE102040808080804B
:1001A000808080402010040D0D0701FE804020104B
:1001B00010101010101020408005060607000320C4
:1001C000A87070A8200505050700012020F8202050
:1001D0000305050701FD606020408004010107015F
:1001E00003F0020202070200C0C0060C0C0700FE6A
:1001F00004040808101020204040808006090907E8
:10020000000078848C94A4C48484780709090700CA
:10021000001070101010101010FE060909070000E1
:100220007884040408102040FC06090907000078BF
:1002300084040438040484780609090700000818B7
:10024000284888FC08081C060909070000FC808073
:10025000F80404048478060909070000788080F80F
:100260008484848478060909070000FC04040810CB
:1002700020202020060909070000788484847884DF
:1002800084847806090907000078848484847C04C7
:100290000478020707070200C0C0000000C0C003C6
:1002A0000A0A0701FD6060000000606020408005D0
:1002B00009090701000810204080402010080604AA
:1002C00004070003FC0000FC050909070100804049
:1002D00020100810204080060909070000788404D7
:1002E00004081020002006090907000078849CA457
:1002F000A49880807C0609090700003030484884B3
:10030000FC848484060909070000F8848484F88446
:100310008484F80609090700007884808080808042
:100320008478060909070000F8848484848484841E
:10033000F8060909070000FC808080F8808080FCB6
:10034000060909070000FC808080F8808080800614
:100350000909070000788480808C848484780609E9
:100360000907000084848484FC8484848407090948
:10037000070000FE10101010101010FE06090907EB
:100380000000040404040484848478060909070036
:1003900000848890A0C0A090888406090907000006
:1003A0008080808080808080FC07090907000082AF
:1003B000C6AA92928282828206090907000084C43A
:1003C000A4948C84848484060909070000788484BA
:1003D000848484848478060909070000F88484846E
:1003E000F880808080060A0A0700FF78848484846D
:1003F00084A4947804060909070000F8848484F82A
:100400008484848406090907000078848080780445
:10041000048478070909070000FE1010101010105E
:10042000101006090907000084848484848484846D
:1004300078070909070000828282444428281010A6
:10044000070909070000828282829292AAC6820668
:1004500009090700008484844830304884840709EF
:100460000907000082828244281010101006090932
:10047000070000FC04081020408080FC030C0C07DF
:1004800002FFE080808080808080808080E0060C99
:100490000C0701FE80804040202010100808040452
:1004A000030C0C0701FFE02020202020202020202A
:1004B00020E005030307010620508807010107001B
:1004C000FEFE03030307010880402006060607001E
:1004D000007C84848C946406090907000080808075
:1004E000F884848484F806060607000078848080F7
:1004F000807C0609090700000404047C8484848449
:100500007C0606060700007884FC80807C040909CC
:10051000070100304040E0404040404006090907E4
:1005200000FD7C848484847C040478060909070027
:1005300000808080F8848484848403090907020091
:10054000400000C040404040E0030C0C0701FD208B
:1005500000006020202020202020C006090907007C
:10056000008080808890A0D0888403090907020059
:10057000C040404040404040E0070606070000FC05
:10058000929292929206060607000098A4C4848470
:1005900084060606070000788484848478060909A6
:1005A0000700FDF884848484F880808006090907A8
:1005B00000FD7C848484847C040404060606070011
:1005C0000098A4C08080800606060700007C807822
:1005D0000404F8040909070100404040E04040409D
:1005E00040300606060700008484848C9464060666
:1005F00006070000848448483030070606070000DC
:1006000092929292926C060606070000844830305F
:1006100048840609090700FD84848484847C0404DA
:1006200078060606070000FC08102040FC040F0FA7
:100630000701FD3040404040404080404040404045
:100640004030010D0D0703FE808080808080808017
:100650008080808080040F0F0701FDC020202020B3
:10066000202010202020202020C0060202070004A5
:100670006498000000070000000000070000000070
:10068000000700000204040700FF40404080070EFE
:100690000E0700FE06081010103810101010101071
:1006A00020C00504040700FF4848489007010107DF
:1006B00000009203060607020340E040404040036A
:1006C000060607020340E04040E04005030307013F
:1006D00008205088070A0A0700007EA4A8B06054CA
:1006E000AA2A2A14060C0C070000442810788480DB
:1006F000807804048478020505070000408080802B
:10070000400609090700007C909090989090907C9A
:1007100000000007000000000007000000000007C4
:1007200000000000000700000204040703054080E9
:10073000808002040407030540404080050404074C
:100740000105489090900504040701054848489029
:100750000606060700023078FCFC78300401010729
:100760000103F0070101070003FE0602020700086B
:100770006498070404070005F25E5252060B0B074B
:10078000000044281000007C80780404F80205056D
:10079000070000804040408006060607000068947D
:1007A0009C90906C00000007000000000007000013
:1007B000070C0C07000044000082828244281010BD
:1007C0001010000000070000010909070400800064
:1007D00080808080808080050A0A0700FE202070CB
:1007E000A8A0A0A0782020060B0B07000060908036
:1007F00080F08080808488F007070707000082442B
:100800003828384482070A0A070000824428FE106C
:1008100010FE101010010D0D0703FE8080808080F7
:100820000000008080808080060D0D0700FF788426
:100830008444A0904824148884847804010107012A
:100840000890060909070000F0087484848474087D
:10085000F005080807010478888888780000F80601
:100860000505070000448888884406040407000141
:10087000FC040404050101070003F806080807004A
:1008800001F008649494E49488040101070108F0DD
:1008900005050507010670888888700506060700AB
:1008A000012020F82020F8040505070107609020AA
:1008B00040F00405050701076090209060030303E2
:1008C00007030860E0C00609090700FD88888888DA
:1008D00088F4808080060A0A0700003C54949454EF
:1008E0003C14141414020202070303C0C0020303E1
:1008F0000702FEC04080030505070207C0404040D4
:10090000E005080807010470888888700000F80670
:1009100005050700008844444488070C0C070000C4
:1009200060202022740810244C941E04070C0C072D
:100930000000602020227408102C5284081E070C2E
:100940000C07000060902092640810244C941E0450
:1009500006090907000010001020408080847806F6
:100960000C0C0700004020103030484884FC848480
:1009700084060C0C0700000810203030484884FC26
:10098000848484060C0C070000102844303048484A
:1009900084FC848484060C0C0700006498003030CA
:1009A000484884FC848484060C0C0700004800003E
:1009B0003030484884FC848484060C0C07000030E6
:1009C00048483030484884FC84848406090907007C
:1009D000007C909090F89090909C060B0B0700FE86
:1009E0007884808080808084781020060C0C07003A
:1009F00000402010FC808080F8808080FC060C0C79
:100A0000070000081020FC808080F8808080FC06B1
:100A10000C0C070000102844FC808080F880808047
:100A2000FC060C0C070000480000FC808080F88069
:100A30008080FC070C0C070000402010FE101010F6
:100A400010101010FE070C0C070000040810FE1018
:100A5000101010101010FE070C0C07000010284496
:100A6000FE10101010101010FE070C0C07000048AC
:100A70000000FE10101010101010FE0609090700EB
:100A80000078444444E444444478060C0C070000D5
:100A900064980084C4A4948C84848484060C0C0719
:100AA0000000402010788484848484848478060C38
:100AB0000C0700000810207884848484848484785F
:100AC000060C0C07000010284478848484848484F5
:100AD0008478060C0C070000649800788484848471
:100AE00084848478060C0C07000048000078848415
:100AF000848484848478050505070002885020508A
:100B00008806090907000078848C94A4C48484783A
:100B1000060C0C07000040201084848484848484A4
:100B20008478060C0C0700000810208484848484D8
:100B300084848478060C0C07000010284400848408
:100B4000848484848478060C0C07000048000084A8
:100B50008484848484848478070C0C07000004084F
:100B60001082828244281010101006090907000024
:100B700080F8848484F8808080060B0B0700FF389F
:100B800044848890908884849880060B0B0700002A
:100B900040201000007C84848C9464060B0B0700BA
:100BA0000004081000007C84848C9464060B0B07FE
:100BB000000010284400007C84848C9464060A0A97
:100BC000070000649800007C84848C946406090902
:100BD0000700004800007C84848C9464060A0A079D
:100BE0000000304848307C84848C946406060607F4
:100BF000000078A4BCA0A07C0608080700FE78844A
:100C00008080807C1020060B0B0700004020100025
:100C1000007884FC80807C060B0B07000004081021
:100C200000007884FC80807C060B0B0700001028F5
:100C30004400007884FC80807C0609090700004895
:100C400000007884FC80807C040B0B07010080404E
:100C5000200000602020202070040B0B07020010F1
:100C600020400000C040404040E0050B0B07010061
:100C7000205088000060202020207004090907010E
:100C800000900000602020202070060B0B07000061
:100C900050205008047C8484848478060A0A070063
:100CA000006498000098A4C4848484060B0B070099
:100CB000004020100000788484848478060B0B07A1
:100CC00000000408100000788484848478060B0BEC
:100CD0000700001028440000788484848478060A81
:100CE0000A070000649800007884848484780609E8
:100CF000090700004800007884848484780505058D
:100D00000700012000F80020060606070000788C86
:100D100094A4C478060B0B07000040201000008448
:100D200084848C9464060B0B0700000408100000F8
:100D30008484848C9464060B0B0700001028440004
:100D4000008484848C94640609090700004800002C
:100D50008484848C9464060E0E0700FD0408100041
:100D60000084848484847C040478060C0C0700FDD1
:100D7000808080F884848484F8808080060C0C074E
:100D800000FD48000084848484847C040478000589
:100D90000900FE06017E02F820FFFE08FE07FE00A5
:100DA000000005000001060605020080808080002A
:100DB00080030202050105A0A005050505000150FC
:100DC000F850F8500508080500FF2078A07028A802
:100DD000702005060605000078A8B068A8900406F3
:100DE0000605000040A04050A05001020205020488
:100DF00080800308080501FF20408080808040201B
:100E00000308080500FF80402020202040800405C2
:100E10000505000140906090200303030500014098
:100E2000E0400203030500FE40408002010105018D
:100E300002C0010101050200800408080500FE103F
:100E4000102020404080800406060500006090B01D
:100E5000D0906003060605010040C0404040E00419
:100E600006060500006090102040F004060605000C
:100E7000006090201090600406060500002060A02D
:100E8000F02070040606050000F080E01090600479
:100E900006060500006080E09090600406060500EC
:100EA00000F01020404040040606050000609060FD
:100EB000909060040606050000609090701060013C
:100EC0000404050200800000800206060500FE40C2
:100ED00000004040800305050501002040804020BF
:100EE000040303050001F000F0030505050100807F
:100EF000402040800406060500006090204000402D
:100F00000406060500006090B0B080700406060577
:100F10000000609090F09090040606050000E090BC
:100F2000E09090E0040606050000609080809060EC
:100F3000040606050000E090909090E00406060587
:100F40000000F080E08080F0040606050000F080DC
:100F5000E0808080040606050000609080B090600C
:100F60000406060500009090F09090900306060598
:100F70000100E040404040E004060605000010107B
:100F80001010906004060605000090A0C0C0A0905C
:100F90000406060500008080808080F004060605B7
:100FA000000090F0F090909004060605000090D0AC
:100FB000B0909090040606050000609090909060BC
:100FC000040606050000E09090E080800407070515
:100FD00000FF60909090B06010040606050000E0ED
:100FE0009090E090900406060500006090601090DC
:100FF00060030606050100E040404040400406064C
:101000000500009090909090600406060500009006
:10101000909090A040040606050000909090F0F09B
:10102000900406060500009090606090900406060B
:101030000500009090A0404040040606050000F026
:1010400010204080F00208080502FFC080808080E8
:101050008080C00408080501FE80804040202010E8
:10106000100208080501FFC0404040404040C00356
:10107000020205010440A00501010500FEF802027C
:101080000205010580400404040500007090B05082
:101090000406060500008080E09090E0040404054A
:1010A000000060908070040606050000101070902B
:1010B000907004040405000060F0807003060605CB
:1010C00001002040E04040400406060500FE70900C
:1010D000907010600406060500008080E0909090FB
:1010E0000306060501004000C04040E00208080574
:1010F00001FE4000C040404040800406060500005C
:101100008080A0C0A090030606050100C0404040BA
:1011100040E0050404050000F0A8A8A804040405A4
:101120000000A0D09090040404050000609090603E
:101130000406060500FEE09090E0808004060605A7
:1011400000FE709090701010040404050000A0D000
:10115000808004040405000070E010E0030606052A
:1011600001004040E040402004040405000090904D
:10117000B0500404040500009090A040050404054C
:101180000000A8A8A8500404040500009060609026
:101190000406060500FE909090701060040404059B
:1011A0000000F02040F00309090501FE2040404006
:1011B00080404040200108080502FF808080808038
:1011C0008080800309090501FE80404040204040A6
:1011D000408004020205000250A00000000500004B
:1011E00000000005000000000005000002030305E8
:1011F00000FF4040800309090501FE204040E04017
:10120000404040800403030500FF5050A005010149
:10121000050000A803050505010140E0404040032A
:10122000050505010140E040E0400302020501051B
:1012300040A005060605000078D0E070F8700408AC
:1012400008050000502070806010906002030305C4
:10125000000040804004060605000070A0B0A0A079
:101260007000000005000000000005000000000004
:101270000500000000000500000203030502034012
:10128000808002030305010340408004030305003E
:101290000350A0A00403030500035050A00404045D
:1012A00005000160F0F060020101050102C00501C6
:1012B00001050002F804020205000550A005030321
:1012C000050003F858580407070500005020007077
:1012D000E010E002030305000080408004040405E0
:1012E000000070B0A05000000005000000000005E4
:1012F000000004080805000050009090A040404005
:101300000000000500000106060502008000808044
:1013100080800406060500FF2060B0C0704004060F
:10132000060500006080C08090E004040405000011
:1013300090606090030606050100A040E040E04098
:101340000108080502FF808080000080808004087A
:10135000080500FF609040A0502090600201010548
:101360000105C0040606050000C020D0D020C0033F
:10137000050505010260A06000E00503030500000B
:10138000489048040202050001F010030101050025
:1013900002E0040505050001C020D0D0B002010123
:1013A000050105C003030305010340A04003040435
:1013B00005000040E040E00203030501048040C056
:1013C000020303050104C040C0020101050205C07B
:1013D0000405050500FFA0A0A0D0800406060500B6
:1013E0000070B0B0703030010101050202800202CD
:1013F000020501FEC0C0020303050104C040400312
:10140000050505010240A04000E0050303050000BA
:10141000904890050707050000C0485020489808EC
:10142000050707050000C048502050881805070729
:10143000050000C048D020489808040606050000B2
:1014400020002040906004080805000040206090C3
:1014500090F090900408080500002040609090F003
:1014600090900408080500002050006090F09090D3
:1014700004080805000050A0006090F09090040857
:10148000080500005000609090F090900408080556
:1014900000002050206090F09090040606050000A7
:1014A00070A0F0A0A0B00408080500FE6090808045
:1014B000906020400408080500004020F080E08093
:1014C00080F00408080500002040F080E08080F0F3
:1014D0000408080500002050F080E08080F0040837
:1014E000080500005000F080E08080F00308080547
:1014F00001008040E040404040E003080805010052
:101500002040E040404040E003080805010040A0C2
:1015100000E0404040E0030808050100A000E04072
:10152000404040E00406060500006050D050506086
:1015300004080805000050A090D0B09090900408D6
:101540000805000040206090909090600408080515
:101550000000204060909090906004080805000012
:10156000205000609090906004080805000050A092
:1015700000609090906004080805000050006090A2
:1015800090909060030303050001A040A0040606AC
:101590000500006090B0D09060040808050000408D
:1015A00020909090909060040808050000204090E2
:1015B00090909090600408080500002050009090E2
:1015C0009090600408080500005000909090909062
:1015D000600408080500002040009090A0404004EE
:1015E000060605000080E090E08080040707050003
:1015F000FF6090A0A090A080040707050000402095
:10160000007090B050040707050000204000709063
:10161000B0500407070500002050007090B050043F
:10162000070705000050A0007090B05004060605A2
:10163000000050007090B0500407070500002050D3
:10164000207090B05004040405000070B0A0700435
:1016500006060500FE609080702040040707050024
:101660000040200060F08070040707050000204063
:101670000060F0807004070705000020500060F053
:101680008070040606050000500060F080700307BB
:1016900007050100804000C04040E0030707050146
:1016A00000408000C04040E003070705010040A063
:1016B00000C04040E0030606050100A000C0404015
:1016C000E0040707050000C0C02070909060040788
:1016D0000705000050A000A0D09090040707050067
:1016E0000040200060909060040707050000204043
:1016F0000060909060040707050000205000609093
:10170000906004070705000050A0006090906004FE
:101710000606050000500060909060030505050076
:10172000004000E0004004040405000060B0D06008
:101730000407070500004020009090B05004070700
:101740000500002040009090B050040707050000FD
:101750002050009090B05004060605000050009004
:1017600090B0500409090500FE1020009090907080
:1017700010600408080500FE8080E09090E0808002
:101780000408080500FE5000909090701060000062
:10179000000200090F0000030401000C000000001B
:1017A000000000000000000000000000040802012A
:1017B000104080401020408040800802040180409A
:1017C000201002011080102040400404040404038F
:1017D00004050202020204030202020206060606D1
:1017E0000606040402020204000000002300260092
:1017F00029002C002F0000000000250028002B00ED
:101800002E00310000000000240027002A002D00D7
:10181000300012010002EF0201404123418000012B
:101820000102030112010002000000404123418037
:1018300000010102030141726475696E6F204C4C16
:10184000430041726475696E6F2059756E00040320
:101850000904080B00020202010009040000010251
:1018600002000005240010010524010101042402E6
:101870000605240600010705810310004009040144
:1018800000020A000000070502024000000705836D
:10189000024000002E105715321671201E288010AD
:1018A00011241FBECFEFDAE0DEBFCDBF11E0A0E014
:1018B000B1E0E2E2F8E502C005900D92A63DB10765
:1018C000D9F723E0A6EDB1E001C01D92A53FB20714
:1018D000E1F718E1CEE9D8E104C02297FE010E94A9
:1018E0002229C439D107C9F70E94FD220C94042C87
:1018F0000C940000CF93DF93EC01262F4CAD6BAD21
:1019000004960E94C2192BAD992787FD9095820FEE
:10191000911D8BAF81E090E0DF91CF9108958AED2A
:1019200091E00E94F0108AEE91E00E94F01088E3AE
:1019300092E00E942C218EE392E00E942C218CE404
:1019400092E00C942C2197FD04C09093D7018093D2
:10195000D60177FD04C07093D9016093D801089532
:101960008F929F92AF92BF92CF92DF92EF92FF92AF
:101970000F931F93CF93DF9306ED11E08EE0C82EF7
:1019800081E0D82E96E0E92E91E0F92E2BE0822E10
:10199000912CF801219131918F01C901B4010E946C
:1019A000EA285C012B3031051CF0FFEFAF1ABF0AAB
:1019B000C0E0D0E0CA15DB0534F4F70120813181A5
:1019C0004281538103C020E030E0A901BE01F6014D
:1019D000808191810E9431122196CA30D10551F740
:1019E000F2E0CF0ED11C84E0E80EF11CE1E00A3DEC
:1019F0001E0779F680910E0190910F010E9425112A
:101A00008091100190911101DF91CF911F910F9161
:101A1000FF90EF90DF90CF90BF90AF909F908F900E
:101A20000C942511CF92DF92EF92FF92CF93DF9328
:101A3000CDB7DEB76E970FB6F894DEBF0FBECDBF41
:101A40008DE592E00E940A16892B09F4A1C08DE56C
:101A500092E00E940A16892B09F49AC06EE671E0A2
:101A6000CE0149960E949A2140E850E0BE01675E8F
:101A70007F4F8DE592E00E94891523E030E040E041
:101A800050E0BE01675E7F4FCE0143960E94AC22BC
:101A90002D8D3E8D44E050E0BE01675E7F4FCE014C
:101AA0000D960E94AC2265E571E0CE0143960E943E
:101AB0006D22882309F441C06DE671E0CE010196E4
:101AC0000E949A21BE016F5F7F4FCE010D960E944A
:101AD000A8227C01CE0101960E942C21970140E0B2
:101AE00050E0BE01635F7F4FCE0107960E94AC229B
:101AF00029893A89A7014F5F5F4FBE01635F7F4F1E
:101B0000CE0101960E94AC22CE0101960E94F122E4
:101B10006B017C01CE0107960E94F122DC01CB0112
:101B2000B6010E94A30C0E94B00CCE0101960E9447
:101B30002C21CE0107960E942C2169E571E0CE018F
:101B400043960E946D22882339F0BE01635F7F4F68
:101B50008EE392E00E94B0216DE571E0CE014396E4
:101B60000E946D22882339F0BE01635F7F4F88E3B6
:101B700092E00E94B021CE010D960E942C21CE0150
:101B800043960E942C21CE0149960E942C215FCFC2
:101B90006E960FB6F894DEBF0FBECDBFDF91CF912A
:101BA000FF90EF90DF90CF900895AF92BF92CF92C9
:101BB000DF92EF92FF920F931F93CF93DF936B010E
:101BC0007C015A0100E010E00A151B050CF047C02B
:101BD000C0E0D0E06AE070E080E090E00E94771D15
:101BE000A7019601BE018AEE91E00E943112A70181
:101BF0009601BE018AED91E00E9431128AEE91E0D9
:101C00000E9425118AED91E00E9425112196CA308B
:101C1000D10501F7C9E0D0E06AE070E080E090E033
:101C20000E94771D20E030E0A901BE018AEE91E01C
:101C30000E94311220E030E0A901BE018AED91E05E
:101C40000E9431128AEE91E00E9425118AED91E006
:101C50000E942511219700F70F5F1F4FB5CFDF912D
:101C6000CF911F910F91FF90EF90DF90CF90BF9099
:101C7000AF90089541E050E00C94D50DCF93DF93E1
:101C800000D000D000D0CDB7DEB7FC01EE0FFF1FB3
:101C9000E65EFE4F60817181CE0101960E949A211D
:101CA000BE016F5F7F4F8DE592E00E940316CE016B
:101CB00001960E942C2126960FB6F894DEBF0FBE27
:101CC000CDBFDF91CF910895AF92BF92CF92DF92B7
:101CD000EF92FF920F931F93CF93DF93E2E2AE2E2A
:101CE000E1E0BE2E02E111E0C0E0D0E0F50180812C
:101CF000F2E0AF0EB11C0E94A11EF80120813181DB
:101D00008217930709F442C091838083892BF1F5F0
:101D1000CE010E943E0E209761F48091D6019091F1
:101D2000D701019697FD26C09093D7018093D601E5
:101D300021C0C130D10561F48091D8019091D901C1
:101D4000019697FD35C09093D9018093D80130C09A
:101D5000C230D10541F0C330D10581F4C12CD12C62
:101D60007601DA940BC0C12CDD24DA947AEAE72EEE
:101D7000F12C04C0C12CD12C7601CA9443E050E070
:101D8000C701B6010E94D50D0E94B00C21960E5FCE
:101D90001F4FC430D10509F0A9CFDF91CF911F911A
:101DA0000F91FF90EF90DF90CF90BF90AF9008958C
:101DB000C12CD12C7601EA94E1CFBF92CF92DF9271
:101DC000EF92FF920F931F93CF93DF93CDB7DEB7C0
:101DD00062970FB6F894DEBF0FBECDBF8091370279
:101DE000811107C081E0809337028EEF91E00E945D
:101DF0003C1B8EEF91E00E946B1BFAE0BF2EAAE124
:101E0000CA2EB4E2DB2E1EE2E12E0FE3F02E00E339
:101E10001EE36CE171E08EEF91E00E94301A1092A7
:101E20003502B09236026CE472E08AEF91E00E94D3
:101E300015216EE87DE08EEF91E00E94301A10923D
:101E40003502C092360261E671E0CE0101960E9431
:101E50009A216EE372E0CE0101960E944022BC01FD
:101E60008AEF91E00E941521CE0101960E942C215B
:101E700010923502D092360268E671E0CE010196EA
:101E80000E949A2168E372E0CE0101960E944022EE
:101E9000BC018AEF91E00E941521CE0101960E94BB
:101EA0002C2110923502E09236026FE671E08AEF43
:101EB00091E00E9423216CE171E08EEF91E00E949D
:101EC000301A10923502F09236026091D80170916A
:101ED000D9014AE0CE0101960E94E8216091D60125
:101EE0007091D7014AE0CE010D960E94E821BE0113
:101EF000635F7F4FCE0107960E94C7216DE671E0B8
:101F0000CE0107960E945322BE016F5F7F4F0E9451
:101F10004022BC018AEF91E00E941521CE01079674
:101F20000E942C21CE010D960E942C21CE010196FB
:101F30000E942C216EE87DE08EEF91E00E94301A25
:101F4000009335021093360261E771E08AEF91E069
:101F50000E9423218EEF91E00E94701B811159CFC6
:101F600062960FB6F894DEBF0FBECDBFDF91CF9162
:101F70001F910F91FF90EF90DF90CF90BF90089549
:101F8000CF93DF938AEE91E00E94DB108AED91E01F
:101F90000E94DB108AEE91E00E9425118AED91E00B
:101FA0000E9425116FEF7FEF8FEF90E00E943A0EB5
:101FB00026E040E950ED63E070E080915B02909193
:101FC0005C020E94AD1F82E592E00E945014C2E2C2
:101FD000D1E08881229662E00E94321E81E0CA32FE
:101FE000D807B9F76FEF7FEF8FEF90E00E943A0EBE
:101FF0006FEF7FEF8FEF90E00E943A0EDF91CF916D
:102000000C94DD0E0F931F930E94481D0091440213
:10201000109145022091460230914702601B710BDE
:10202000820B930B693E73408105910570F00E940D
:10203000481D60934402709345028093460290933A
:1020400047021F910F910C94DD0E1F910F9108957F
:102050000E94640E0E94120D0C9402100F93CF93F5
:10206000DF9361E871E08CE492E00E949A210E9483
:10207000481D609348027093490280934A029093EE
:102080004B020E94481D6093440270934502809366
:1020900046029093470264E971E08EE392E00E9469
:1020A0009A2164E971E088E392E00E949A211092FB
:1020B000FD011092FC01CAEFD1E08AEA91E0998318
:1020C000888340E16AE271E0CE010E94391682EB1A
:1020D00091E09983888306E025E044E06AE070E0BF
:1020E0008AEE91E00E94121227E046E06AE070E07A
:1020F0008AED91E00E941212DF91CF910F91089525
:102100000C948F0C8EBD00000DB407FEFDCF8EB574
:1021100008950E94B41C8CB58C7F8CBD8DB58160F8
:102120008DBD8CB58F7D8CBD8CB5837F8CBD0895A6
:10213000CF93DF93EC0161E08A810E94321E61E05F
:102140008B810E94321E4A8150E0FA01E653F84E1C
:10215000E491F0E0EE0FFF1FEA50F84EA591B49124
:10216000BD87AC872B8130E0F901E653F84E8491AE
:1021700090E0880F991F8A50984EFC0185919491A8
:102180009F878E87FA01E455F84E44914A87F901FA
:10219000E455F84E24912B878C919A85909589234C
:1021A0008C93EE85FF8590818B8580958923808334
:1021B000DF91CF910895FC0122812F3F11F40C94FF
:1021C00089100C949810CF93DF93EC0160E08A8122
:1021D0000E94321E60E08B81DF91CF910C94321E01
:1021E000CF93DF93EC018D819E81009711F00E94C7
:1021F000BE298A818F3F21F4DF91CF910C94EA1C94
:10220000CE01DF91CF910C94E310FC0199E0915045
:10221000D9F0A485B58582852C9167FF03C0282B52
:102220002C9303C0809582238C93A685B7858C91CF
:102230002385822B8C93A685B7852C9183858095E9
:1022400082238C93660FE3CF0895BF92CF92DF92E3
:10225000EF92FF920F931F93CF93DF93EC01ED80EA
:10226000FE80E114F10409F488C008811981BC8062
:102270008A818F3F09F041C080E00E94821080E097
:102280000E94821080E00E9482101EBC3FEF0DB4BD
:1022900007FEFDCF3EBDF70123E08C81882331F09E
:1022A00080818B9DC0011124892F01C080810DB4D4
:1022B00007FEFDCF8EBD215031962111EECF83E078
:1022C000E80EF11C0150110911F70DB407FEFDCF06
:1022D0008FEF0E9482108FEF0E9482108FEF0E947A
:1022E00082108FEFDF91CF911F910F91FF90EF90B0
:1022F000DF90CF90BF900C94821074E0D72E60E0F6
:10230000CE010E940511DA94D1F78C81882331F136
:102310006FEFCE010E9405116701E3E0CE0ED11CE4
:10232000F70181917F018B9DC0011124692FCE019E
:102330000E940511EC14FD0499F70150110941F7B1
:1023400014E015C0F70161917F01CE010E940511D3
:10235000EC14FD04B9F70150110991F36FEFCE01B0
:102360000E9405116701F3E0CF0ED11CEBCF6FEF98
:10237000CE010E9405111150D1F7DF91CF911F912D
:102380000F91FF90EF90DF90CF90BF900895FC01E8
:102390003781208580819181AC01321307C04D5F68
:1023A0005F4F569547955695479502C0440F551F68
:1023B000480F591F60E070E0858196810C94472B8F
:1023C0000F931F93CF93DF93EC018B018D819E813F
:1023D000009711F00E94BE299F818885981307C03D
:1023E000C8010396969587959695879503C0C80171
:1023F000880F991F800F911F0E9426299E838D832D
:10240000892B49F019830883CE01DF91CF911F9169
:102410000F910C94C71119821882DF91CF911F91EF
:102420000F9108950F931F93FC014283238314821D
:1024300016821582802F8370878310E0C8019595DE
:102440008795959587958370808734E015950795D6
:102450003A95E1F703700187CF011F910F910C941A
:10246000E011FC018081918168177907C0F4DB01DC
:10247000AA0FBB1FA60FB71F858196818A0F9B1FCE
:102480005781DC01A50FB11D4C934085DC01A40FE1
:10249000B11D3C933185FC01E30FF11D20830895AC
:1024A000FC01238134812627022E2295207F2025BE
:1024B000032E322F22952F700226269532272327AE
:1024C000220F220F220F2025FC013483238308953D
:1024D000CF93DF93EC018D819E81DC01ED91FC9126
:1024E0006C810190F081E02D09958D819E81DC0148
:1024F000ED91FC910190F081E02D6B81DF91CF9106
:1025000009948F929F92AF92BF92CF92DF92EF92F7
:10251000FF92CF93DF93EC016B010E94481D4B01AA
:102520005C01E12CF12C8D819E81DC01ED91FC910F
:102530000680F781E02D099597FF0DC00E94481D88
:10254000681979098A099B096C157D058E059F0517
:1025500050F38FEF9FEFDF91CF91FF90EF90DF90DF
:10256000CF90BF90AF909F908F900895CF93DF93BF
:10257000EC018D819E81DC01ED91FC910480F5815F
:10258000E02D09951816190654F48D819E81DC0101
:10259000ED91FC910680F781E02D0995EACFDF915E
:1025A000CF9108952F923F924F925F926F927F92B8
:1025B0008F929F92AF92BF92CF92DF92EF92FF9253
:1025C0000F931F93CF93DF93CDB7DEB72D970FB641
:1025D000F894DEBF0FBECDBF3C011B013C832B83B3
:1025E000BF82AE825801AC0CBD1CA40EB51EBD82CC
:1025F0004B2C512CCA01860F971F99878887D901C8
:10260000A00FB11FBB87AA87F601EE0DFF1DFD8746
:10261000EC87D30118968C91581608F026C1EFEF7D
:10262000FFEFD3011496FC93EE93139715968D91BB
:102630009C911697DC01ED91FC910190F081E02DC9
:102640006FEF09956FEFC3010E945012F30185816E
:102650009681DC01ED91FC910190F081E02DD30198
:102660006C910995F3016081C3010E945012D3015E
:1026700015968D919C911697DC01ED91FC9101903E
:10268000F081E02D6D810995642DC3010E945012E7
:10269000F30185819681DC01ED91FC910190F0813F
:1026A000E02D6A2D09956A2DC3010E945012610127
:1026B00088859985C816D906A1F0F3018581968190
:1026C0008601DC01ED91FC910190F081E02DD601B5
:1026D0006D916D010995F8016081C3010E9450124E
:1026E000E7CFCB80DC808A859B85C816D906B1F000
:1026F000D30115968D919C9116978601DC01ED9181
:10270000FC910190F081E02DD6016D916D0109954C
:10271000F8016081C3010E945012E5CF87018C85CA
:102720009D8508171907B1F0D30115968D919C91DD
:1027300016976801DC01ED91FC910190F081E02D8C
:10274000D8016D918D010995F6016081C3010E9448
:102750005012E5CFC3010E94681264E670E0C30125
:102760000E9481128F3F910509F074C0EFEFFFEFD7
:10277000D3011496FC93EE9313976FEFC3010E945D
:10278000501265E070E0C3010E948112D3016C9188
:10279000262F30E08217930709F05CC0C3010E9426
:1027A00050126AE070E0C3010E9481128C0197FD13
:1027B00051C0682FC3010E9450126AE070E0C3014B
:1027C0000E9481126C0197FD45C0682FC3010E94D1
:1027D00050120A83198209811A810C0D1D1DC12C0A
:1027E000D12C65E070E0C301C016D106A1F0C81479
:1027F000D90489F00E94811297FD09C0EE81FF8102
:10280000EC0DFD1D8083682FC3010E945012BFEFA5
:10281000CB1ADB0AE6CF0E9481126C0197FD1AC029
:1028200065E070E0C3010E94811297FD13C0DC2CAB
:10283000CC24C80ED91EF301838194818C159D058B
:1028400049F480818F5F8083C8018016910678F4F7
:10285000C4010DC0539464E670E080E090E00E94F3
:10286000771DC3010E94B612D4CE8FEF9FEF2D9635
:102870000FB6F894DEBF0FBECDBFDF91CF911F9191
:102880000F91FF90EF90DF90CF90BF90AF909F900F
:102890008F907F906F905F904F903F902F90089512
:1028A0003F924F925F926F927F928F929F92AF92E0
:1028B000BF92CF92DF92EF92FF920F931F93CF932D
:1028C000DF93CDB7DEB72E970FB6F894DEBF0FBEFD
:1028D000CDBF3C01DC0117968C9117978111CFC0B9
:1028E00081E017968C93C3010E94B61268EE73E0E4
:1028F00080E090E00E94771DF30185819681DC01E4
:10290000ED91FC910480F581E02D099518161906CA
:1029100054F355E0552E4424439462E3362EEBE401
:10292000F1E0DE011696852D01900D928A95E1F772
:10293000F3014086812C912CA12CB12CC12CD12CDF
:10294000E12CF12C00E010E020E030E045E050E028
:10295000BE016A5F7F4FC3010E94D21263E0D301C0
:1029600015968D919C9116970E9425216AEF70E033
:1029700080E090E00E94771D68ED70E0F3018581B2
:1029800096810E94F2206AEF70E080E090E00E9461
:10299000771D66ED70E0D30115968D919C91169789
:1029A0000E94F22064EF71E080E090E00E94771DC9
:1029B0006AEC70E0F301858196810E94F22064EF59
:1029C00071E080E090E00E94771DC3010E94B61282
:1029D000E0E5F1E0DE011196852D01900D928A95DA
:1029E000E1F7D30118963C9244E0842E912CFE012D
:1029F0003B965F0120E030E045E050E0BE016F5FB4
:102A00007F4FC3010E94D2128F3FFFEF9F0739F41F
:102A100068EE73E080E090E00E94771D80CF2B8508
:102A20002111FFCF049711F52C8530E02053310997
:102A300044E6429FC001439F900D11242D8530E054
:102A4000205331096AE0629FA001639F500D112459
:102A5000840F951F2E8530E020533109820F931F7C
:102A6000D30112969C938E93119705C084E690E053
:102A7000F3019283818382E3D30118968C932E967F
:102A80000FB6F894DEBF0FBECDBFDF91CF911F917F
:102A90000F91FF90EF90DF90CF90BF90AF909F90FD
:102AA0008F907F906F905F904F903F90089510921D
:102AB00052028DEE92E0909358028093570210924A
:102AC000590210925A0290935C0280935B0208951F
:102AD0008F929F92AF92BF92CF92DF92EF92FF922E
:102AE0000F931F9348015901C12CD12CE12CF12CDB
:102AF00000E010E020E030E00E94D2121F910F9120
:102B0000FF90EF90DF90CF90BF90AF909F908F900D
:102B10000895AF92BF92CF92DF92EF92FF920F9300
:102B20001F93CF93DF931F92CDB7DEB75B01CDB676
:102B3000DEB62DE629839A012F5F3F4F6DB77EB732
:102B4000621B730B0FB6F8947EBF0FBE6DBFEDB75F
:102B5000FEB731967F018A019F0141E050E0BE013E
:102B60006F5F7F4FFC01808191810E9468158E0DFF
:102B70009F1DFC011082B701C5010E94D0210FB634
:102B8000F894DEBE0FBECDBE0F90DF91CF911F91A6
:102B90000F91FF90EF90DF90CF90BF90AF9008958E
:102BA0008F929F92AF92BF92CF92DF92EF92FF925D
:102BB0000F931F93CF93DF931F92CDB7DEB79B0187
:102BC0006DE46983812C912CA12CB12CC12CD12CCA
:102BD000E12CF12C8A0141E050E0BE016F5F7F4F94
:102BE000FC01808191810E94D2120F90DF91CF91E0
:102BF0001F910F91FF90EF90DF90CF90BF90AF901B
:102C00009F908F900895FB0144815581608171816F
:102C10000C94D0150F931F93CF93DF9300D01F9286
:102C2000CDB7DEB72EE62B8302E010E09E012F5FCA
:102C30003F4F41E050E0BE016D5F7F4FFC0180815E
:102C400091810E946815898190E0982F88272A81B8
:102C5000820F911D0F900F900F90DF91CF911F91D8
:102C60000F91089582E592E090935E0280935D0259
:102C70000895FC0113AE14AE15AE04960C944E1BD1
:102C80000F93FC010150040F84A996A9941718F022
:102C9000081728F402C0081750F0041740F4215018
:102CA000260F83A995A9961720F4281720F480E011
:102CB00007C0281720F481E0261710F0F8CF81E034
:102CC0000F910895DB011496ED91FC91159720E08A
:102CD00030E061E00994DB011496ED91FC911597C9
:102CE00020E030E063E00994DB011496ED91FC9163
:102CF000159720E030E040E064E00994DB01149691
:102D0000ED91FC91159720E030E041E064E00994FA
:102D1000DB011496ED91FC91159720E030E062E024
:102D20000994DB011496ED91FC91159720E030E0B9
:102D300065E00994DB011496ED91FC91159766E02E
:102D40000994AF92BF92CF92DF92EF92FF920F93CE
:102D50001F93CF93DF931F92CDB7DEB75C018B013A
:102D60007A0180E0F7014491811109C04F3FD9F108
:102D7000B801C5010E94911681112EC039C04F3F84
:102D8000B9F34E3FB9F1403F38F5403E30F04F7057
:102D9000B801C5010E9488161FC0403D30F04F7039
:102DA000B801C5010E946B1617C0403CB8F0B801CD
:102DB000C50149830E94741649814295407F4E5F48
:102DC000C42ED12CC6010E940E18B801C5010E9464
:102DD0007E16C6010E940E1880E006C047FDFCCF9B
:102DE000842F90E0F7CF81E0FFEFEF1AFF0ABACF10
:102DF00080E001C081E00F90DF91CF911F910F9192
:102E0000FF90EF90DF90CF90BF90AF900895CF9359
:102E1000DF93EC018BA5882381F088E70E94BA1725
:102E2000882369F08EA1811106C00E94EB178823C8
:102E300031F01BA602C080E4F8CF81E001C080E041
:102E4000DF91CF9108951F93CF93DF93142FE90162
:102E50006330B9F050F4613079F0623009F043C06A
:102E6000FC0146A321E023A73EC0663001F1673094
:102E700059F16530C1F50EC0FC0186A50E94881786
:102E800032C0FC0116A221E023A741112CC00E94F0
:102E9000071829C00E940717811103C00E94071854
:102EA00024C0812F0E94EB1781111DC0F7CF0E9413
:102EB0000717882399F31123B1F089910E94EB172A
:102EC000882361F31150F7CF0E940717882331F34D
:102ED000112349F0FE0184910E94EB17882329F009
:102EE00021961150F5CF81E001C080E0DF91CF91B4
:102EF0001F91089590916102911104C08093610225
:102F000060935F0208951092610210925F0208952B
:102F1000809360021092B90084FF02C08CE001C06F
:102F200088E48093B8000C948317CF93DF9300D08C
:102F3000CDB7DEB720ED37E03A8329839091BC000E
:102F4000982391F429813A81232B49F480916002DE
:102F500081FD0AC081E00E947A1780E006C02981C5
:102F60003A8121503109E8CF81E00F900F90DF9135
:102F7000CF910895CF93C82F84EA8093BC0061E07D
:102F800080E80E949517882309F19091B900987FF5
:102F9000983021F0903111F061E015C0C093BB0072
:102FA00084E88093BC0062E080E80E949517882343
:102FB00069F08091600281FD0BC08091B900887F2B
:102FC000883131F062E082E00E947A1780E001C02F
:102FD00081E0CF9108958093BB0084E88093BC008A
:102FE00063E080E80E949517882369F08091600271
:102FF00081FD0BC08091B900887F883231F063E099
:1030000082E00E947A1780E0089581E0089584E9C3
:103010008093BC0064E080E10C9495172EE93FE0BA
:10302000009729F0F9013197F1F70197F9CF089549
:10303000BF92CF92DF92EF92FF920F931F93CF93A5
:10304000DF938C01EB01B42E690180E14817B1F1E7
:10305000841770F0EAE04E133CC042E0C8010E94C1
:10306000621646EF50E0BE01C8010E94A11631C0B1
:10307000F1E14F1731F185E148132BC0EA80FB8065
:103080004EEE50E0C8010E94A116F7014481406B4A
:10309000BE01C8010E94911641E0BE01C8010E9414
:1030A0008816AE01B801C7010E94F21B882301F106
:1030B00040E0BE01C8010E946B160BC045EE50E017
:1030C00002C04AED50E0BE01C8010E94A11681E095
:1030D00010C096014B2DBE01C801DF91CF911F9109
:1030E0000F91FF90EF90DF90CF90BF900C946A1CEF
:1030F00080E0DF91CF911F910F91FF90EF90DF90D3
:10310000CF90BF900895FC01E60FF11D849190E0EF
:10311000982F88273196E4918E0F911D0895FC0118
:10312000849108950E948F18882311F0823011F441
:1031300086E0089583E0089580E0089566E00C94A9
:10314000831868E00C9483180A96FC018491089512
:103150000B96FC0184910895BF92CF92DF92EF927B
:10316000FF920F931F93CF93DF93EC01E62E0C8118
:103170001D81C8010E948F18F82E8C819D810E94AC
:103180009218B82E21E0F21619F0CC24CA9402C08D
:103190005FE0C52E8C819D810E94A418F82E8C8141
:1031A0009D810E94A818D82E8C819D810E94A11813
:1031B000E0E6EE1538F4009729F0080F191F41E6F4
:1031C000F42E10C08C819D810E949E18F0E4FE15A3
:1031D00038F4009729F0080F191F31E4F32E02C0CC
:1031E0000F5E1F4FDE1440F4188A1B8A1C8A198A4E
:1031F0001A8A80E090E050C0DF14B0F32B2D30E04D
:10320000F80184918F3F19F40F5F1F4F40C0FE10EB
:1032100036C08C819D810E948F1898012F5F3F4F8F
:10322000F801882311F0823091F484918B8BF9019D
:1032300024912C8BF8013396E491E88BF8013496B5
:10324000E491E98BF8013596E491EA8B16C09491EC
:10325000892F8F7082508A8B92959F70998BF9017C
:103260002491822F8F708C8B22952F702B8BF801DD
:103270003296E491E295EF70E88BC8010DC0F80139
:103280003296E491EC210E0F111D020F131FFD1455
:1032900009F4AACFF394B4CFDF91CF911F910F918E
:1032A000FF90EF90DF90CF90BF9008954F925F9284
:1032B0007F928F929F92AF92BF92CF92DF92EF92C6
:1032C000FF920F931F93CF93DF931F92CDB7DEB77B
:1032D0002C01162F742E622F0E94AC186C010097DF
:1032E00009F43EC0F201848195810E949218F82E63
:1032F000F201838804899188910E8289781A172DAA
:10330000101B282D412F692DC2010E9440168823D1
:1033100021F1CF0CD11CF7E08F0E86948694869411
:10332000A82CB12C1715C9F0392D76018E2D8C19CA
:10333000881578F4F701049120E0412F632FC20132
:1033400039830E947F1BFFEFEF1AFF0A3981385F34
:10335000EDCFCA0CDB1C1F5FE5CFF201808901C0F5
:1033600080E00F90DF91CF911F910F91FF90EF9030
:10337000DF90CF90BF90AF909F908F907F905F90A5
:103380004F9008950F931F93CF93DF9300D01F9218
:10339000CDB7DEB78C01DC015596ED91FC915697C7
:1033A0002B834A83698309954A81480F2B81698160
:1033B000C8010F900F900F90DF91CF911F910F9147
:1033C0000C945619DC0114968D919C9115970097D9
:1033D00009F43FC057962C915797FC01211108C062
:1033E0003596E4915896EC935897FC013C9611C0A1
:1033F000213041F43F96E4915896EC935897FC01A4
:10340000709607C03D96E4915896EC935897FC014E
:103410003E96849159968C93599758968C915897CB
:10342000992787FD909559962C915997821B910960
:1034300027FD93955A962C915A97203441F0829FFC
:10344000C0011124E6E096958795EA95E1F75B9631
:103450008C9308952CE938E1FC01368B258B089577
:10346000CF93DF93EC018C819D818617970749F0FC
:103470007D836C83CE010E94E2198CE998E19E8BDA
:103480008D8BDF91CF9108951F93CF93DF93EC0144
:103490001D821C821F821E82198681E0888782E23B
:1034A0008A871F861E8680E090E02FEFFE01E80FDE
:1034B000F91F23A301968E309105C1F711E018A3DF
:1034C000CE010E942A1A1F8B188E198E80E48A8FD3
:1034D0001B8E83EB9CE19AAB89ABDF91CF911F915F
:1034E0000895DB01ED91FC910994EF92FF921F93F7
:1034F000CF93DF9300D0CDB7DEB77C01DC01D1964E
:10350000ED91FC91D29782E069837A83099520E05E
:1035100030E04AE069817A81C7010E94711A182F50
:10352000D701D196ED91FC91D29783E00995D7010F
:10353000D196ED91FC91D29780E00995812F0F9063
:103540000F90DF91CF911F91FF90EF9008950F930F
:103550001F93CF93DF93EC018B01E9A9FAA982E0D5
:103560000995E9A9FAA981E0099520E030E044E154
:10357000B801CE010E94711A9E012D5C3F4F47E1B8
:10358000B801CE010E94711AE9A9FAA980E0DF9181
:10359000CF911F910F910994FF920F931F93CF9397
:1035A000DF93EC018B01E9A9FAA982E00995E9A969
:1035B000FAA981E0099520E030E045E1B801CE01AB
:1035C0000E94711AF82E882341F09E012D5C3F4F16
:1035D00047E1B801CE010E94711AE9A9FAA980E079
:1035E00009958F2DDF91CF911F910F91FF90089535
:1035F000CF93DF931F92CDB7DEB79E012F5F3F4F72
:1036000046E40E94711A89810F90DF91CF9108954D
:10361000CF93DF931F92CDB7DEB79E012F5F3F4F51
:1036200047E40E94711A89810F90DF91CF9108952C
:1036300020E030E048E40C94711ACF93DF93EC0162
:103640006A817B810E94F81A88836A817B81CE011E
:103650000E94081B89836A817B81CE010E94181B0E
:103660008B879E012D5C3F4F6A817B8147E1CE01B4
:10367000DF91CF910C94711ACF93DF93EC016A81A3
:103680007B810E94751A882329F0CE010E941D1BA0
:1036900081E001C080E0DF91CF910895EF92FF9229
:1036A0000F931F93CF93DF931F92CDB7DEB77C01AB
:1036B0008B0149830E94441AF701138302834981D5
:1036C00046A7C7010F90DF91CF911F910F91FF90F7
:1036D000EF900C943C1BFC01628173810C94A71A3F
:1036E000CF93DF93EC01EE85FF85309709F00995C4
:1036F0006A817B81CE01DF91CF910C94CC1A0F931C
:10370000FC0182819381648F458F278F068F9F01F3
:10371000245E3F4F4BE3BC01CF010F910C94711A13
:10372000FC01128280818150838314820895FC0100
:1037300020818281820F82839181891760F4848144
:103740008F5F84838381820F891710F08FEF890F39
:10375000838381E0089580E00895DC011696ED9161
:10376000FC91179715968C919F01280F311DC90167
:103770001192E817F907E1F70895FC0191E08381C0
:10378000861708F490E021E0461708F020E0322F79
:10379000392B81E05281451708F480E0832392237E
:1037A000892B0895DC01FB01108212968C911297EF
:1037B000818315968C9115978150828313968C91F5
:1037C00083830895FB0141812381213029F0233037
:1037D00031F468EF640F04C0642F485F01C0642FA8
:1037E0000C94BD1BFC01CB01BA01268137814581B8
:1037F0000C949A16DC011696ED91FC91179712968F
:103800008C91481B477081E090E0042E01C0880F26
:103810000A94EAF7E60FF11D3081222311F0832B81
:1038200002C08095832380830895FB014181DC01E0
:1038300012962C911297421768F013962C911397B9
:10384000241740F0608115962C91621718F424819A
:103850000C94FA1B0895CF92DF92FF920F931F935F
:10386000CF93DF9300D0CDB7DEB78C016B01FB01A6
:10387000F2808381813039F070F0823039F083300A
:1038800041F020E001C021E030E007C020E03FEF40
:1038900004C02FEFF9CF20E031E0F7FE08C0B601F9
:1038A000C80129833A830E94151C3A812981F601B7
:1038B0008081830F80838181820F8183FF0C69F770
:1038C0000F900F90DF91CF911F910F91FF90DF909C
:1038D000CF9008950F931F93CF93DF938901FB013E
:1038E000C281D3814233F9F068F4453109F147319F
:1038F00041F1443181F5CE010E94AD1BCE010E9401
:10390000901B29C0463411F1473411F14B3319F59E
:10391000B901CE010E94E21B8823E9F0B801CE0173
:103920000E942B1C18C0B901CE010E94151C13C0A7
:10393000CE010E94971B882381F0CE010E94AD1B0F
:103940000AC0B901CE010E94D21B05C08D8101C001
:103950008981F801808381E001C080E0DF91CF910F
:103960001F910F9108950895CF93CFB7F894809148
:10397000E302811127C0EBEDF7E18491EDEBF7E174
:103980009491E82FF0E0EE0FFF1FEC5FF74EA5914A
:10399000B4918C91892321F461E081E10E946B1E36
:1039A00061E081E10E94321E8CB580618CBD8CB5D6
:1039B00080648CBD61E08FE00E94321E61E080E196
:1039C0000E94321E8091E3028F5F8093E302CFBF9B
:1039D000CF9108959FB7F8948091E302882319F05E
:1039E00081508093E3028091E302811105C08CB580
:1039F0008F7B8CBD1092E2029FBF08951F920F92A1
:103A00000FB60F9211242F933F938F939F93AF93F1
:103A1000BF938091E5029091E602A091E702B091F8
:103A2000E8023091E40223E0230F2D3720F40196C1
:103A3000A11DB11D05C026E8230F0296A11DB11DD1
:103A40002093E4028093E5029093E602A093E702BC
:103A5000B093E8028091E9029091EA02A091EB0212
:103A6000B091EC020196A11DB11D8093E9029093E3
:103A7000EA02A093EB02B093EC02BF91AF919F9149
:103A80008F913F912F910F900FBE0F901F9018951F
:103A90002FB7F8946091E5027091E6028091E702F9
:103AA0009091E8022FBF08953FB7F8948091E90202
:103AB0009091EA02A091EB02B091EC0226B5A89B8E
:103AC00005C02F3F19F00196A11DB11D3FBF66270C
:103AD000782F892F9A2F620F711D811D911D42E051
:103AE000660F771F881F991F4A95D1F70895CF92C7
:103AF000DF92EF92FF92CF93DF936B017C010E94E4
:103B0000541DEB01C114D104E104F10489F00E94B9
:103B100010230E94541D6C1B7D0B683E734090F374
:103B200081E0C81AD108E108F108C851DC4FEACF9A
:103B3000DF91CF91FF90EF90DF90CF900895789430
:103B400084B5826084BD84B5816084BD85B58260A2
:103B500085BD85B5816085BDEEE6F0E08081816040
:103B60008083E1E8F0E01082808182608083808140
:103B700081608083E0E8F0E0808181608083E1E91A
:103B8000F0E0808182608083808181608083E0E9D1
:103B9000F0E0808181608083E1ECF0E080818460EE
:103BA0008083808182608083808181608083E3EC78
:103BB000F0E0808181608083E0ECF0E080818260D1
:103BC0008083E2ECF0E0808181608083EAE7F0E0CE
:103BD0008081846080838081826080838081816035
:103BE0008083808180688083089590E0FC01319714
:103BF000EF30F105B0F5EA5AFF4F0C94202980917F
:103C000080008F7703C0809180008F7D809380003B
:103C1000089580918000877FF9CF84B58F7702C0A7
:103C200084B58F7D84BD0895809190008F7707C003
:103C3000809190008F7D03C080919000877F80935A
:103C4000900008958091C0008F7703C08091C000DC
:103C50008F7D8093C00008958091C200877F8093FC
:103C6000C2000895CF93DF9390E0FC01E455F84E35
:103C70002491FC01E653F84E8491882349F190E0A9
:103C8000880F991FFC01EC5FF74EA591B4918A5003
:103C9000984EFC01C591D4919FB7611108C0F8946A
:103CA0008C91209582238C93888182230AC0623074
:103CB00051F4F8948C91322F309583238C93888122
:103CC000822B888304C0F8948C91822B8C939FBFA5
:103CD000DF91CF9108950F931F93CF93DF931F929E
:103CE000CDB7DEB7282F30E0F901E257F84E8491C6
:103CF000F901E455F84E1491F901E653F84E049198
:103D00000023C9F0882321F069830E94F51D698191
:103D1000E02FF0E0EE0FFF1FEA50F84EA591B491AE
:103D20009FB7F8948C91611103C01095812301C055
:103D3000812B8C939FBF0F90DF91CF911F910F919B
:103D40000895CF93DF93282F30E0F901E257F84E22
:103D50008491F901E455F84ED491F901E653F84EF7
:103D6000C491CC2391F081110E94F51DEC2FF0E05D
:103D7000EE0FFF1FE851F84EA591B4912C912D2321
:103D800081E090E021F480E002C080E090E0DF91EB
:103D9000CF910895FC01818D228D90E0805C9F4F32
:103DA000821B91098F7399270895FC01918D828D53
:103DB000981731F0828DE80FF11D858D90E0089500
:103DC0008FEF9FEF0895FC01918D828D981761F020
:103DD000828DDF01A80FB11D5D968C91928D9F5F42
:103DE0009F73928F90E008958FEF9FEF089587E67D
:103DF00090E2892B49F080E090E0892B29F00E9425
:103E0000672081110C9400000895FC01848DDF016E
:103E1000A80FB11DA35ABF4F2C91848D90E001963D
:103E20008F739927848FA689B7892C93A089B1892C
:103E30008C9180648C93938D848D981306C0028836
:103E4000F389E02D80818F7D80830895CF93DF9368
:103E5000EC01888D8823C9F0EA89FB89808185FD82
:103E600005C0A889B9898C9186FD0FC00FB607FCE3
:103E7000F5CF808185FFF2CFA889B9898C9185FF24
:103E8000EDCFCE010E94051FE7CFDF91CF910895BE
:103E9000CF92DF92FF920F931F93CF93DF931F92E6
:103EA000CDB7DEB76C0181E0D60158968C93589758
:103EB0005B969C915B975C968C915C97981307C07E
:103EC0005096ED91FC915197808185FD2EC0F601B1
:103ED000038D10E00F5F1F4F0F731127F02EF601B7
:103EE000848DF81211C00FB607FCF9CFD601509699
:103EF000ED91FC915197808185FFF1CFC6016983D7
:103F00000E94051F6981EBCF838DE80FF11DE35AF5
:103F1000FF4F6083D6015B960C935B975296ED91B1
:103F2000FC915397808180620CC0D6015696ED912A
:103F3000FC91579760835096ED91FC915197808149
:103F40008064808381E090E00F90DF91CF911F919A
:103F50000F91FF90DF90CF900895BF92CF92DF92A4
:103F6000EF92FF92CF93DF93EC016A017B01B22EB7
:103F7000E889F98982E08083411581EE580761055F
:103F80007105A1F060E079E08DE390E0A701960172
:103F90000E94FE2821503109410951095695479543
:103FA00037952795211580E1380798F0E889F98938
:103FB000108260E874E88EE190E0A70196010E940B
:103FC000FE282150310941095109569547953795E9
:103FD0002795EC85FD853083EE85FF852083188E3F
:103FE000EC89FD89B082EA89FB89808180618083C8
:103FF000EA89FB89808188608083EA89FB898081E6
:1040000080688083EA89FB8980818F7D8083DF914E
:10401000CF91FF90EF90DF90CF90BF9008951F92C7
:104020000F920FB60F9211242F938F939F93EF93BC
:10403000FF93E091FD02F091FE028081E091030385
:10404000F091040382FD12C09081809106038F5F7E
:104050008F7320910703821751F0E0910603F0E07F
:10406000E351FD4F958F8093060301C08081FF913E
:10407000EF919F918F912F910F900FBE0F901F90F6
:1040800018951F920F920FB60F9211242F933F9302
:104090004F935F936F937F938F939F93AF93BF9350
:1040A000EF93FF938DEE92E00E94051FFF91EF9139
:1040B000BF91AF919F918F917F916F915F914F9140
:1040C0003F912F910F900FBE0F901F9018958DEE7E
:1040D00092E00E94CA1E21E0892B09F420E0822F81
:1040E00008951092F0021092EF0288EE93E0A0E0A3
:1040F000B0E08093F1029093F202A093F302B093A8
:10410000F4028AEB91E09093EE028093ED028DEC45
:1041100090E09093FA028093F9028CEC90E09093F7
:10412000FC028093FB0288EC90E09093FE02809367
:10413000FD0289EC90E0909300038093FF028AECEB
:1041400090E090930203809301038EEC90E09093B3
:104150000403809303031092060310920703109246
:104160000803109209030895CF92DF92EF92FF9215
:104170000F931F93CF93DF937C016A01EB0100E063
:1041800010E00C151D0571F06991D701ED91FC91BE
:104190000190F081E02DC7010995892B19F00F5F7F
:1041A0001F4FEFCFC801DF91CF911F910F91FF906B
:1041B000EF90DF90CF9008956115710581F0DB01DC
:1041C0000D900020E9F7AD0141505109461B570BF6
:1041D000DC01ED91FC910280F381E02D099480E0F7
:1041E00090E00895EF92FF920F931F93CF93DF9388
:1041F0008C017B01C0E0D0E0F701EC0FFD1F649162
:10420000662359F0F801A081B181ED91FC91C801BC
:104210000995892B11F02196EFCFCE01DF91CF9137
:104220001F910F91FF90EF900895DC01ED91FC91AB
:10423000DB0114964D915C9115976D917C910280F4
:10424000F381E02D09940C94DC20DC01ED91FC91CC
:104250000190F081E02D0994FC01808191810C9402
:10426000BE29CF93DF93EC0188819981009711F0EB
:104270000E94BE29198218821D821C821B821A820A
:10428000DF91CF9108950F931F93CF93DF93EC01AC
:104290008B016F5F7F4F888199810E944D2A009723
:1042A00031F0998388831B830A8381E001C080E019
:1042B000DF91CF911F910F910895CF93DF93EC0180
:1042C00088819981892B29F08A819B81861797079C
:1042D00060F4CE010E944321882341F08C819D81AE
:1042E000892B19F4E881F981108281E0DF91CF9167
:1042F0000895EF92FF920F931F93CF93DF93EC01FA
:104300007B018A01BA010E945D21811104C0CE01A6
:104310000E94312107C01D830C83B70188819981D8
:104320000E94572BCE01DF91CF911F910F91FF90EB
:10433000EF900895FC01118210821382128215827F
:1043400014826115710559F0FB0101900020E9F715
:10435000AF0141505109461B570B0C947921089528
:10436000CF93DF93EC01FB018617970761F0608123
:1043700071816115710529F0448155810E9479216F
:1043800002C00E943121CE01DF91CF910895FC013E
:104390001182108213821282158214820C94B02131
:1043A000CF93DF93EC016115710561F0FB01019082
:1043B0000020E9F7AF0141505109461B570B0E94FD
:1043C000792102C00E943121CE01DF91CF91089561
:1043D0000F931F93CF93DF93CDB7DEB762970FB6DE
:1043E000F894DEBF0FBECDBF8C01CB01F801118266
:1043F0001082138212821582148250E0BE016F5F18
:104400007F4F0E94782BBE016F5F7F4FC8010E94D3
:10441000D02162960FB6F894DEBF0FBECDBFDF91FC
:10442000CF911F910F910895EF92FF920F931F93D9
:10443000CF93DF93EC017B010C811D816115710528
:1044400011F480E016C04115510591F0040F151FBD
:10445000B8010E945D218823A1F3288139818C81D4
:104460009D81B701820F931F0E94572B1D830C83E0
:1044700081E0DF91CF911F910F91FF90EF90089510
:10448000CF93DF93EC01FB01448155816081718101
:104490000E941422811103C0CE010E943121CE015D
:1044A000DF91CF910895CF93DF93EC0161157105F2
:1044B00069F0FB0101900020E9F7AF01415051097B
:1044C000461B570B0E941422811103C0CE010E948B
:1044D0003121CE01DF91CF910895FC0124813581F6
:1044E000232B31F421E061157105A1F0FB0108C017
:1044F000FC01808191816115710531F421E0FC019D
:104500008081882339F005C00E944E2B21E0892B41
:1045100009F020E0822F0895CF93DF93FC0184817E
:1045200095814817590778F4C081D181FB016081DA
:104530007181CE01840F951F0E945E2B009719F0A8
:104540008C1B9D0B02C08FEF9FEFDF91CF910895E1
:1045500040E050E00C948C22BF92CF92DF92EF9219
:10456000FF920F931F93CF93DF936C017B01EA01BE
:1045700089012417350720F48D2FE901042F182F06
:104580006EE671E0C6010E949A21D70114968D91C2
:104590009C911597C817D907C8F48017910708F49C
:1045A0008C01D701ED91FC911197E00FF11FB080C4
:1045B00010826D917C916C0F7D1FC6010E94D021ED
:1045C000D701ED91FC91E00FF11FB082C601DF91A0
:1045D000CF911F910F91FF90EF90DF90CF90BF9000
:1045E0000895FC0180819181009711F00C94172BA4
:1045F00060E070E0CB01089508950E949F1D0E9425
:10460000FC228AE893E00E942A270E94C00FC7EF8D
:10461000DEE10E9428102097E1F30E94F71EF9CFF7
:104620000895615030F02091F100FC012083019643
:10463000F8CF289884E680939303089540918E03E1
:1046400050918F0320918C0330918D0342175307B3
:10465000B4F49091E8009570E1F39091E80092FD38
:1046600019C08093F10080918E0390918F03019681
:104670008F739927892B19F48EEF8093E80080912E
:104680008E0390918F03019690938F0380938E03F6
:1046900081E0089580E00895CF92DF92EF92FF923B
:1046A0000F931F93CF93DF931F92CDB7DEB7082FE1
:1046B000162FF42E862F880F8E5F99830E941E235B
:1046C00083E00E941E23E02EC02E9981D92E8C2DCE
:1046D0008E19811798F4F601F7FE02C0849101C08B
:1046E00080810E941E23082F80E00E941E238023C9
:1046F000FFEFCF1ADF0A8111EACF01C081E00F90EE
:10470000DF91CF911F910F91FF90EF90DF90CF90AD
:1047100008958091D70081608093D70080EA8093CC
:10472000D80089B5806189BD89B5826089BD09B429
:1047300000FEFDCF61E070E080E090E00E94771D18
:104740008091D8008F7C80618093D8008091E000B8
:10475000807F8093E0000895CF93DF931F92CDB7C1
:10476000DEB71982CE0101960E949A270E94C228C4
:10477000BE016F5F7F4F0E943B2889810F90DF91C0
:10478000CF9108952FB7FC012083F8946770609350
:10479000E9000895CF93DF931F92CDB7DEB7682F5E
:1047A000CE0101960E94C2238091F20099819FBFA1
:1047B0000F90DF91CF910895FF920F931F93CF93A6
:1047C000DF9300D0CDB7DEB7F62E8A019091920329
:1047D000992311F057FF03C08FEF9FEF2BC0682F75
:1047E000CE0101967A830E94C2238091F20090E06C
:1047F000A8017A81801791070CF4AC01EF2DF72FF7
:10480000F40E84E6FE1639F0289880939303909175
:10481000F1009193F7CF4115510521F08091F200FD
:10482000882321F089818FBFCA0104C08BE6809361
:10483000E800F8CF0F900F90DF91CF911F910F916B
:10484000FF900895CF93DF931F92CDB7DEB741E07D
:1048500050E0BE016F5F7F4F0E94DC23019719F487
:10486000898190E002C08FEF9FEF0F90DF91CF9191
:104870000895CF93DF931F92CDB7DEB7682FCE0197
:1048800001960E94C2239091E800892F807295FFC3
:1048900004C09091F20080E4891B99819FBF0F9022
:1048A000DF91CF9108956F927F928F929F92AF92F6
:1048B000BF92CF92DF92EF92FF920F931F93CF930D
:1048C000DF931F92CDB7DEB7782E7B01C42EB52EB5
:1048D00080919203882369F0042F152F8AEFD82E38
:1048E000872D8072982E9AE3A92E872D8074882EAA
:1048F00011C08FEF9FEF57C0872D0E943924682E7B
:1049000081110CC0DA94A9F361E070E080E090E0DE
:104910000E94771D0115110579F73BC0282F30E063
:10492000021713070CF4602E672DCE0101960E942A
:10493000C2238091E80085FF29C0262D30E0021BAC
:10494000130B992039F06A948FEF6816B1F010922A
:10495000F100F9CFF701862D77FE07C0815058F09E
:1049600094919093F1003196F9CF815020F091917C
:104970009093F100FACFE20EF31E8091E80085FFDC
:104980000FC00115110511F481100AC089818FBF74
:10499000C1CF5D9884E6809394038C2D9B2D03C03A
:1049A000A092E800F3CF0F90DF91CF911F910F916C
:1049B000FF90EF90DF90CF90BF90AF909F908F903F
:1049C0007F906F9008951092E90010928F031092DB
:1049D0008E0390938D0380938C030895CF92DF9282
:1049E000FF920F931F93CF93DF9300D0CDB7DEB725
:1049F000F82E8A016B0101151105B1F0F601F7FEE1
:104A000002C0849101C0808149835A830E941E2381
:104A100001501109FFEFCF1ADF0A49815A81811134
:104A2000EACF8FEF9FEF01C0CA010F900F90DF9187
:104A3000CF911F910F91FF90DF90CF9008951F931A
:104A4000CF93DF931F92CDB7DEB7162F2091E800EA
:104A500022FFFCCF612F79830E9411238BEF80937B
:104A6000E800812F7981972F0F90DF91CF911F91CF
:104A700008951F920F920FB60F921124DF92EF92BA
:104A8000FF920F931F932F933F934F935F936F93D7
:104A90007F938F939F93AF93BF93EF93FF93CF93A6
:104AA000DF93CDB7DEB76C97DEBFCDBF1092E900C4
:104AB0008091E80083FF23C168E0CE0145960E9403
:104AC000112382EF8093E8003D8937FF05C0809174
:104AD000E80080FFFCCF03C08EEF8093E800832FB7
:104AE000807609F0F0C02E894F89D88C21110CC036
:104AF000303829F4809191038093F10002C0109224
:104B0000F1001092F100F4C0842F90E09D29213033
:104B100049F43111EDC0019709F0EAC08091910389
:104B20008D7F0AC0233059F43111E2C0019709F09A
:104B3000DFC080919103826080939103D9C02530BA
:104B400041F48091E80080FFFCCF40684093E3008F
:104B5000CFC0263009F08DC0EB8CFC8C22E0D21245
:104B60002CC080E090E00E94E3240E94AC2399E0F6
:104B70008E010F5F1F4FF801292F11922A95E9F737
:104B80009983DA8291E09E8390EA98879AEF9987D9
:104B900020918E0330918F03275F3F4F3C832B83FF
:104BA0008D83C7010E94E32449E050E0B80180E012
:104BB0000E94EE240E94AC239BC0C7010E94E32404
:104BC0000E94C228BE016B5E7F4F0E94642800973E
:104BD00019F00CF08DC090C081E0D8120EC08B8D02
:104BE0009C8D089719F481E080938B0380918B034F
:104BF00081112FC064E278E131C0E3E0DE127CC0B5
:104C00008F89882349F1823029F440E86BE082E4FF
:104C100098E11CC0813029F440E86BE086E398E11C
:104C200015C0833009F068C00E94C2288E010F5F52
:104C30001F4FB8010E948328F80101900020E9F776
:104C40003197E01BF10B40E06E2FC8010E944C230E
:104C50004DC062E178E102C06EE478E16115710552
:104C600009F44AC0FB01449150E080E80E94EE2420
:104C70003FC0273009F440C0283021F481E0809300
:104C8000F10036C02930A1F53370B1F5E9E3F1E068
:104C900081E021E036E39081992361F08093E9007F
:104CA0002093EB0091919093EC003093ED008F5F97
:104CB000873089F78EE78093EA001092EA008F89A7
:104CC0008093920315C08B8D9C8D0E94E324898D67
:104CD000811105C0CE0145960E94A52707C00E94FC
:104CE000C228BE016B5E7F4F0E94A228882321F05C
:104CF0008EEF8093E80003C081E28093EB006C9616
:104D00000FB6F894DEBF0FBECDBFDF91CF91FF91FC
:104D1000EF91BF91AF919F918F917F916F915F9133
:104D20004F913F912F911F910F91FF90EF90DF9046
:104D30000F900FBE0F901F9018958093E9008091FF
:104D4000F200882319F08AE38093E80008951F9207
:104D50000F920FB60F9211242F933F934F935F93AF
:104D60006F937F938F939F93AF93BF93CF93EF9363
:104D7000FF93C091E1008091E100837F8093E10087
:104D80008093E100C3FF0FC01092E90081E080939F
:104D9000EB001092EC0082E38093ED0010929203FE
:104DA00088E08093F000C2FF19C083E00E949D2636
:104DB00080919403882339F08091940381508093EB
:104DC0009403882389F180919303882339F080919B
:104DD0009303815080939303882341F1C4FF10C053
:104DE0008091E2008E7E81608093E2008091E100FC
:104DF0008F7E8093E100809190038E7E806111C050
:104E0000C0FF16C08091E2008E7E80618093E20038
:104E10008091E1008E7E8093E100809190038E7EF0
:104E200081608093900304C05D9ACDCF289AD6CF3D
:104E3000FF91EF91CF91BF91AF919F918F917F9112
:104E40006F915F914F913F912F910F900FBE0F90F7
:104E50001F90189510929203109291031092900354
:104E60000E948923E1EEF0E080818E7E80838DE0D8
:104E70008093E200559A209A0895CF93DF931F9272
:104E8000CDB7DEB76983DC01ED91FC910280F3813F
:104E9000E02D41E050E0BE016F5F7F4F09950F901C
:104EA000DF91CF910895CF93DF93EC018C859D85A1
:104EB00097FF05C082E00E9422249D878C878C8505
:104EC0009D85DF91CF91089583E00C949D26FC0190
:104ED0008485958597FD06C082E00E94CA2390E0F4
:104EE0000196089582E00E94CA2390E00895FC0193
:104EF0008485958597FD05C02FEF3FEF3587248783
:104F0000089582E00C942224CF93DF93EC018091EA
:104F10004A01882331F083E00E94532418161906B1
:104F200034F081E090E09B838A8380E090E0DF9121
:104F3000CF910895FC0120812E5F208342E450E050
:104F400062E578E180E80C94EE24FC012181808107
:104F5000813A59F4213209F05CC047E050E063E443
:104F600071E080E00E94EE2467C0813209F051C0F8
:104F7000233289F4838190E0982F88273281832B14
:104F8000A0E0B0E080933F0190934001A0934101E5
:104F9000B09342010FC0203239F467E070E083E43F
:104FA00091E00E941F250AC0223221F48281809361
:104FB0004A0104C02D7F203209F03EC08091430198
:104FC00090914401A0914501B0914601803B9440ED
:104FD000A105B10501F580914A0180FD1CC08091B9
:104FE0000008909101089093FF0A8093FE0A87E7DA
:104FF00097E790930108809300082BE088E190E008
:105000000FB6F894A895809360000FBE20936000BF
:1050100013C080E0089588E10FB6F8948093600093
:10502000109260000FBEA8958091FE0A9091FF0A31
:10503000909301088093000881E0089510929803EE
:105040001092970388EE93E0A0E0B0E0809399037C
:1050500090939A03A0939B03B0939C038AEC91E0F6
:1050600090939603809395038FEF9FEF9093A20305
:105070008093A1030895EF92FF920F931F93CF9314
:10508000DF937B01FC01C281D38100E010E0209717
:1050900081F0E881F9810280F381E02DB701CE0132
:1050A000099597FD08C0080F191F0884D985C02DE0
:1050B000EECFC80102C08FEF9FEFDF91CF911F911C
:1050C0000F91FF90EF9008950F931F93CF93DF936D
:1050D0008B01FC01C281D381209771F0E881F981B5
:1050E0000480F581E02DB801CE010995009731F4D7
:1050F0000884D985C02DF0CF80E090E0DF91CF917A
:105100001F910F9108950F931F93CF93DF938B01FE
:10511000FC01C281D381209771F0E881F98106807A
:10512000F781E02DB801CE010995080F111D088403
:10513000D985C02DF0CFF8011082DF91CF911F915A
:105140000F9108950F931F93CF93DF938B01FC0171
:10515000C281D381209771F0E881F9810190F081BB
:10516000E02DB801CE010995811106C00884D985CA
:10517000C02DF0CF80E001C081E0DF91CF911F9181
:105180000F9108958091E90381110DC082E0809311
:10519000E50384E08093E6031092E8031092E703AE
:1051A00081E08093E90385EE93E00895AA1BBB1B81
:1051B00051E107C0AA1FBB1FA617B70710F0A61B17
:1051C000B70B881F991F5A95A9F780959095BC0138
:1051D000CD01089597FB072E16F4009407D077FDB4
:1051E00009D00E94D62807FC05D03EF49095819501
:1051F0009F4F0895709561957F4F0895A1E21A2EF3
:10520000AA1BBB1BFD010DC0AA1FBB1FEE1FFF1F6A
:10521000A217B307E407F50720F0A21BB30BE40BBA
:10522000F50B661F771F881F991F1A9469F7609501
:105230007095809590959B01AC01BD01CF010895BB
:10524000EE0FFF1F0590F491E02D0994CF93DF93AB
:105250008230910510F482E090E0E091F303F09148
:10526000F40320E030E0A0E0B0E0309739F1408175
:10527000518148175907B8F04817590771F48281CE
:105280009381109729F013969C938E9312972CC0BC
:105290009093F4038093F30327C02115310531F077
:1052A0004217530718F0A901DB0101C0EF019A0171
:1052B000BD01DF010280F381E02DD7CF211531053B
:1052C000F9F0281B390B2430310580F48A819B8149
:1052D0006115710521F0FB019383828304C09093D3
:1052E000F4038093F303FE01329644C0FE01E20F03
:1052F000F31F8193919322503109398328833AC057
:105300002091F1033091F203232B41F4209102010B
:10531000309103013093F2032093F10320910001B7
:10532000309101012115310541F42DB73EB740916F
:10533000040150910501241B350BE091F103F0911C
:10534000F203E217F307A0F42E1B3F0B28173907CF
:1053500078F0AC014E5F5F4F2417350748F04E0FD1
:105360005F1F5093F2034093F1038193919302C026
:10537000E0E0F0E0CF01DF91CF910895CF93DF938C
:10538000009709F487C0FC01329713821282C09102
:10539000F303D091F403209781F420813181280F09
:1053A000391F8091F1039091F2038217930779F5E9
:1053B000F093F203E093F1036DC0DE0120E030E0F2
:1053C000AE17BF0750F412964D915C9113979D0153
:1053D0004115510509F1DA01F3CFB383A28340816E
:1053E0005181840F951F8A179B0771F48D919C91B1
:1053F0001197840F951F02969183808312968D9149
:105400009C911397938382832115310529F4F0939E
:10541000F403E093F3033EC0D9011396FC93EE939B
:1054200012974D915D91A40FB51FEA17FB0779F410
:1054300080819181840F951F0296D90111969C93CA
:105440008E938281938113969C938E931297E0E0C2
:10545000F0E08A819B81009719F0FE01EC01F9CF01
:10546000CE01029628813981820F931F2091F1038A
:105470003091F2032817390769F4309729F4109214
:10548000F4031092F30302C013821282D093F2034A
:10549000C093F103DF91CF910895A0E0B0E0E3E580
:1054A000FAE20C94D12BEC01CB01209719F40E9465
:1054B0002629B8C0FE01E60FF71F9E0122503109D0
:1054C000E217F30708F4ACC0D9010D911C911197B4
:1054D00006171707B8F00530110508F49FC0A8019A
:1054E000445051094617570708F498C00250110953
:1054F000061B170B019311936D937C93CF010E94B0
:10550000BE298CC05B01A01AB10A4E01800E911E0B
:10551000A091F303B091F403612C712C60E070E072
:10552000109709F449C0A815B905C9F5ED90FC908C
:105530001197670142E0C40ED11CCA14DB0478F154
:1055400047018A189B08640142E0C40ED11C1296E0
:10555000BC9012971396AC91B5E0CB16D10440F0F5
:10556000B282A38391828082D9018D939C9309C0DA
:105570000E5F1F4F0E0D1F1DF90111830083EB2DD0
:10558000FA2F6115710531F0DB011396FC93EE9350
:10559000129744C0F093F403E093F3033FC06D917E
:1055A0007C9111976616770608F43B01BD011296AF
:1055B0000D90BC91A02DB4CF6091F1037091F203D6
:1055C00068157905E9F468167906D0F44091000170
:1055D000509101014115510541F44DB75EB76091FD
:1055E000040170910501461B570BE417F507C0F441
:1055F000F093F203E093F103F901918380830EC0ED
:105600000E9426297C01009759F0A801BE010E9442
:105610003E2BCE010E94BE29C70104C0CE0102C0AC
:1056200080E090E0CDB7DEB7EEE00C94ED2B1F9359
:10563000FC0199278827BC01E89411911032E9F305
:10564000193010F01E30C8F31B3251F01D3249F4EE
:10565000689406C00E948E2B610F711D811D911DE3
:10566000119110531A30B0F33EF4909580957095D7
:1056700061957F4F8F4F9F4F1F910895FB01DC0174
:1056800002C001900D9241505040D8F70895DC01BE
:1056900001C06D9341505040E0F70895FB01DC01DB
:1056A0008D91019080190110D9F3990B0895FB0198
:1056B000DC0101900D920020E1F70895FB0151916A
:1056C0005523A9F0BF01DC014D9145174111E1F7C8
:1056D00059F4CD010190002049F04D914015411140
:1056E000C9F3FB014111EFCF81E090E001970895EC
:1056F0004532510520F4423010F00C94832BFB010D
:105700001082CB010895BB274A3031F4992322F44B
:10571000BDE2909581959F4F0C94A42B592F482F53
:10572000372F262F660F771F881F991F660F771F49
:10573000881F991F620F731F841F951F660F771FA5
:10574000881F991F0895BB27FB015527AA27880F9B
:10575000991FAA1FA41710F0A41B83955051B9F7E5
:10576000A05DAA3308F0A95DA193009779F7B11164
:10577000B1931192CB010C94BD2BDC01FC01672F7E
:1057800071917723E1F7329704C07C916D93708318
:105790006291AE17BF07C8F308952F923F924F92C0
:1057A0005F926F927F928F929F92AF92BF92CF92B1
:1057B000DF92EF92FF920F931F93CF93DF93CDB7BA
:1057C000DEB7CA1BDB0B0FB6F894DEBF0FBECDBF32
:1057D00009942A88398848885F846E847D848C8403
:1057E0009B84AA84B984C884DF80EE80FD800C810C
:1057F0001B81AA81B981CE0FD11D0FB6F894DEBFEF
:105800000FBECDBFED01089518E1CEE9D8E104C087
:10581000FE010E9422292296C03AD107C9F7F894C6
:02582000FFCFB8
:105822000000F5038000FF0000000000FF00EA0115
:10583200DA0101000100010001009A019D01A001AD
:10584200A3011200130014001500181830012317C9
:10585200084000000080620200C18081000000FF59
:10586200FFFFFF00E10000000000005858585858A0
:10587200585831303073636F006D61630065697031
:1058820000626469643E2000657468313E200077DE
:105892000073656D706572206C65676974696D6906
:1058A2000046495245424153452020464F4F5342FC
:1058B200414C4C00756E73657400423000423100F9
:1058C200423200423300000000007A0CB420000093
:1058D20000007A0CB42000000000481FB420CA1E49
:1058E200E31ED51E261F000000003D2784276727E0
:0658F2007727532764270D
:1070000055C000006EC000006CC000006AC00000E7
:1070100068C0000066C0000064C0000062C00000DC
:1070200060C000005EC00000FCC400005AC0000048
:1070300058C0000056C0000054C0000052C00000FC
:1070400050C000005DC000004CC000004AC00000FD
:1070500048C0000046C0000044C0000042C000001C
:1070600040C000003EC000003CC000003AC000002C
:1070700038C0000036C0000034C0000032C000003C
:1070800030C000002EC000002CC000002AC000004C
:1070900028C0000026C0000024C0000022C000005C
:1070A00020C000001EC000001CC0000011241FBE34
:1070B000CFEFDAE0DEBFCDBF11E0A0E0B1E0E6E463
:1070C000FFE702C005900D92A63AB107D9F711E08B
:1070D000A6EAB1E001C01D92AF3BB107E1F74FD383
:1070E00030C78ECFF89410926F001092810081E02B
:1070F00085BF15BE47985D9A289A0C9400000895A4
:107100001F920F920FB60F9211242F938F939F937C
:10711000EF93FF9310928500109284008091A60156
:107120009091A701009741F001979093A701809358
:10713000A601892B09F45D9A8091A8019091A9017B
:10714000009741F001979093A9018093A801892BA2
:1071500009F4289A8091AC019091AD010196909329
:10716000AD018093AC01E0E0F0E0859194918F5FF8
:107170009F4F49F08091AA019091AB0101969093A5
:10718000AB018093AA01FF91EF919F918F912F9175
:107190000F900FBE0F901F90189584E08093E90028
:1071A0000DC08091E8008B778093E80003C08EB318
:1071B000882351F08091E80082FFF9CF8091E800A8
:1071C00085FFEFCF8091F1000895982F83E08093A1
:1071D000E9008091E80085FD0DC08091E8008E7780
